:100000000C9434000C9451000C9451000C94510049
:100010000C9451000C9451000C9451000C9451001C
:100020000C9451000C9451000C9451000C9451000C
:100030000C9451000C9451000C9451000C945100FC
:100040000C9451000C9451000C9492010C94BA0140
:100050000C9451000C9451000C9451000C945100DC
:100060000C9451000C94510011241FBECFEFD8E026
:10007000DEBFCDBF11E0A0E0B1E0E0E6F4E002C0F9
:1000800005900D92AC30B107D9F712E0ACE0B1E0C9
:1000900001C01D92A031B107E1F70E9453000C94FA
:1000A0002E020C940000EF92FF920F931F93DF93A8
:1000B000CF9300D0CDB7DEB7CE01019640E855E230
:1000C00060E070E020E030E00E941C010E94F60138
:1000D0008091C10080628093C10080E0E82E81E0C1
:1000E000F82E08EC10E0F70101900020E9F73197B5
:1000F000E050F14080E091E06E2F0E94EE0180E13F
:1001000097E2F8013197F1F70197D9F7ECCFFC01AD
:10011000118210820895FC0190818181981718F056
:100120008058891B0895891B0895FC018081918165
:10013000891710F0891B08958058891B0895FC01C8
:1001400080819181891708F48058891B11F0828180
:1001500011820895FC0130819181292F2058231BA1
:10016000492F431B391710F0822F01C0842F882399
:10017000C9F36283108281E00895CF93DF93DC019D
:10018000EB0111969C911197442351F12C91291761
:1001900010F0822F02C0822F8058891B09F1291785
:1001A00010F0822F02C0822F8058891B841790F490
:1001B000291710F0422F02C0422F4058491B0AC095
:1001C000FD01E90FF11D828188839F5F97FD90E01B
:1001D000219641504423A1F711969C9381E001C0E0
:1001E00080E0DF91CF910895CF93DF93DC01EB01A5
:1001F0009C91442311F480E01CC011963C9111970E
:10020000532F591B832F8058891B931710F4252FC8
:1002100001C0282F2417C8F3FD01E90FF11D8881C3
:1002200082839F5F97FD90E021964150A9F79C93B0
:1002300081E0DF91CF910895FC0142835383648371
:100240007583318320838091C2008F778093C200B1
:100250008091C2008F7B8093C2002130310501F173
:100260002130310528F02230310509F049C030C075
:10027000228133814481558160E271EA87E090E018
:100280000E940C02215030408091C2008F778093F1
:10029000C2008091C2008F7B8093C20080E03DC08D
:1002A000228133814481558160E472E48FE090E0E3
:1002B0000E940C02215030408091C2008F778093C1
:1002C000C2008091C2008F7B8093C20081E025C074
:1002D000228133814481558160E079E08DE390E0B3
:1002E0000E940C02215030408091C20080688093AF
:1002F000C2008091C20080648093C20082E00DC081
:100300008091C2008F778093C2008091C2008F7B62
:100310008093C20020E030E08FE03093C50020934E
:10032000C40008951F920F920FB60F9211242F93BD
:100330003F934F935F936F937F938F939F93AF936D
:10034000BF93EF93FF936091C6008EE891E00E9407
:10035000AA00FF91EF91BF91AF919F918F917F91F3
:100360006F915F914F913F912F910F900FBE0F9022
:100370001F9018951F920F920FB60F9211242F9372
:100380003F934F935F936F937F938F939F93AF931D
:10039000BF93EF93FF938CE091E00E949500882338
:1003A00039F08CE091E00E949F008093C60005C068
:1003B0008091C1008F7D8093C100FF91EF91BF912B
:1003C000AF919F918F917F916F915F914F913F91ED
:1003D0002F910F900FBE0F901F9018959C01462FE4
:1003E0008CE091E0B9010E94F40008950F931F93EF
:1003F00001EC10E088E1F80180838CE091E00E943C
:1004000087008EE891E00E948700F8018081806873
:1004100080831F910F910895A1E21A2EAA1BBB1B86
:10042000FD010DC0AA1FBB1FEE1FFF1FA217B307C0
:10043000E407F50720F0A21BB30BE40BF50B661FD6
:10044000771F881F991F1A9469F76095709580959A
:1004500090959B01AC01BD01CF010895F894FFCFA9
:0C04600048414C4C4F202121200D0A0087
:00000001FF
