:100000000C9434000C9451000C9451000C94510049
:100010000C9451000C9451000C9451000C9451001C
:100020000C9451000C9451000C9451000C9451000C
:100030000C9451000C9451000C9451000C945100FC
:100040000C9451000C9451000C9439010C946101F2
:100050000C9451000C9451000C9451000C945100DC
:100060000C9451000C94510011241FBECFEFD8E026
:10007000DEBFCDBF11E0A0E0B1E0ECEDF4E002C0E6
:1000800005900D92A832B107D9F712E0A8E2B1E0CD
:1000900001C01D92AC32B107E1F70E9453000C94ED
:1000A0006C020C940000EF92FF920F931F93CF937A
:1000B000DF9360E072EC81E090E041E050E00E946C
:1000C000AF01789400E011E0C0E9D1E0780113C0FD
:1000D000F80101900020E9F73197E050F14080E00D
:1000E00091E06E2F0E94A20180E197E2FE0131971C
:1000F000F1F70197D9F70E9495018A3049F3F7018A
:1001000001900020E9F73197E050F14085E191E05E
:100110006E2F0E94A20180E197E2FE013197F1F774
:100120000197D9F7E8CFFC01118210820895FC01F4
:1001300090818181981718F08058891B0895891B38
:100140000895FC0180819181891710F0891B089521
:100150008058891B0895DC0111969C9111978C9110
:10016000891708F48058891B49F0FD01E90FF11D3A
:1001700082819F5F97FD90E011969C930895DC012A
:100180008C9111962C911197322F3058381B422F99
:10019000481B821710F4942F01C0932F9923C9F3A1
:1001A000FD01E80FF11D62838F5F87FD80E08C9376
:1001B00081E00895CF93DF93DC01EB0111969C91D0
:1001C0001197442351F12C91291710F0822F02C06E
:1001D000822F8058891B09F1291710F0822F02C045
:1001E000822F8058891B841790F4291710F0422F12
:1001F00002C0422F4058491B0AC0FD01E90FF11D02
:10020000828188839F5F97FD90E02196415044232F
:10021000A1F711969C9381E001C080E0DF91CF911E
:100220000895CF93DF93DC01EB019C91442311F4FB
:1002300080E01CC011963C911197532F591B832FBE
:100240008058891B931710F4252F01C0282F2417DD
:10025000C8F3FD01E90FF11D888182839F5F97FD3F
:1002600090E021964150A9F79C9381E0DF91CF91D6
:1002700008951F920F920FB60F9211242F933F9360
:100280004F935F936F937F938F939F93AF93BF939E
:10029000EF93FF936091C6008AEA91E00E94BF004D
:1002A000FF91EF91BF91AF919F918F917F916F914E
:1002B0005F914F913F912F910F900FBE0F901F9024
:1002C00018951F920F920FB60F9211242F933F9300
:1002D0004F935F936F937F938F939F93AF93BF934E
:1002E000EF93FF9388E291E00E94A100882339F008
:1002F00088E291E00E94AB008093C60005C0809127
:10030000C1008F7D8093C100FF91EF91BF91AF91AC
:100310009F918F917F916F915F914F913F912F911D
:100320000F900FBE0F901F9018958AEA91E00E94DF
:10033000A100882321F08AEA91E00E94AB0010928C
:10034000C60008959C01462F88E291E0B9010E9401
:100350001101E1ECF0E080818062808308950F93C9
:100360001F938B019C018091C2008F778093C20004
:100370008091C2008F7B8093C2004130510519F1FA
:100380004130510528F04230510509F04DC036C0CA
:1003900060E472E48FE090E0A90198010E944A02B3
:1003A000215030408091C2008F778093C2008091AD
:1003B000C2008F7B8093C2008091C0008D7F8093AC
:1003C000C00010E03EC060E874E88EE190E0A90152
:1003D00098010E944A02215030408091C2008F77DC
:1003E0008093C2008091C2008F7B8093C200809175
:1003F000C00082608093C00011E023C060E072E121
:100400008AE790E0A90198010E944A0221503040F9
:100410008091C20080688093C2008091C200806495
:100420008093C20012E00DC08091C2008F7780934C
:10043000C2008091C2008F7B8093C20020E030E038
:100440001FE03093C5002093C4008091C1008860F4
:100450008093C1008091C20080618093C20080912E
:10046000C20081608093C2008091C200826080934C
:10047000C20088E291E00E9493008AEA91E00E9423
:1004800093008091C10080688093C100812F1F91EB
:100490000F910895A1E21A2EAA1BBB1BFD010DC0EE
:1004A000AA1FBB1FEE1FFF1FA217B307E407F50724
:1004B00020F0A21BB30BE40BF50B661F771F881F00
:1004C000991F1A9469F760957095809590959B0196
:0C04D000AC01BD01CF010895F894FFCFEE
:1004DC006461746120686173206265656E20726569
:1004EC0061640D0A004E6F206461746120746F208A
:0804FC00726561640D0A000045
:00000001FF
